S00F00006D6178373231392E73726563FC
S11300000C94A9090C94BB090C94BB090C94BB096E
S11300100C94BB090C94BB090C94BB090C94BB094C
S11300200C94BB090C94BB090C94BB090C94BB093C
S11300300C94BB090C94BB090C94BB090C94BB092C
S11300400C94BB090C94BB090C94BB090C94BB091C
S11300500C94BB0920202020416C69636527732020
S1130060416476656E747572657320496E20576FAE
S11300706E6465726C616E64202020202020202034
S1130080202020202020202020204279204C657729
S1130090697320436172726F6C6C202020202020D1
S11300A020202020202020202020436861707465B7
S11300B07220493A20446F776E207468652052613B
S11300C0626269742D486F6C6520202020202020F6
S11300D020204A757374207468656E2068657220E8
S11300E0686561642073747275636B20616761690C
S11300F06E73742074686520726F6F66206F66205B
S11301007468652068616C6C3A20696E206661636E
S1130110742073686520776173206E6F77206D6F2C
S11301207265207468616E206E696E65206665650F
S11301307420686967682C20616E64207368652088
S11301406174206F6E636520746F6F6B207570200F
S1130150746865206C6974746C6520676F6C646581
S11301606E206B657920616E6420687572726965B2
S113017064206F666620746F2074686520676172FE
S113018064656E20646F6F722E204A7573742074D8
S113019068656E2073686520686561726420736F9A
S11301A06D657468696E672073706C617368696EDD
S11301B0672061626F757420696E207468652070B1
S11301C06F6F6C2061206C6974746C652077617941
S11301D0206F66662C20616E6420736865207377D7
S11301E0616D206E656172657220746F206D616B44
S11301F065206F7574207768617420697420776155
S1130200733A206174206669727374207368652080
S113021074686F75676874206974206D75737420D1
S1130220626520612077616C727573206F7220683B
S11302306970706F706F74616D75732C2062757462
S1130240207468656E207368652072656D656D62E3
S11302506572656420686F7720736D616C6C2073C0
S1130260686520776173206E6F772C20616E64203F
S113027073686520736F6F6E206D616465206F75A0
S113028074207468617420697420776173206F6EC0
S11302906C792061206D6F757365207468617420BA
S11302A068616420736C697070656420696E206C89
S11302B0696B652068657273656C662E2027576FBD
S11302C0756C64206974206265206F6620616E79A4
S11302D0207573652C206E6F772C272074686F75DA
S11302E067687420416C6963652C2027746F2073E0
S11302F07065616B20746F2074686973206D6F750D
S113030073653F2045766572797468696E67206904
S11303107320736F206F75742D6F662D7468652D4F
S113032077617920646F776E20686572652C20741C
S113033068617420492073686F756C6420746869FF
S11303406E6B2076657279206C696B656C792069B7
S1130350742063616E2074616C6B3A206174206157
S11303606E7920726174652C2074686572652773D8
S1130370206E6F206861726D20696E2074727969D5
S11303806E672E2720536F2073686520626567614E
S11303906E3A20274F204D6F7573652C20646F20B3
S11303A0796F75206B6E6F7720746865207761793B
S11303B0206F7574206F66207468697320706F6F86
S11303C06C3F204920616D207665727920746972D2
S11303D06564206F66207377696D6D696E6720614F
S11303E0626F757420686572652C204F204D6F759F
S11303F0736521272028416C6963652074686F75D3
S11304006768742074686973206D757374206265FD
S11304102074686520726967687420776179206F39
S11304206620737065616B696E6720746F2061204C
S11304306D6F7573653A2073686520686164206E1A
S11304406576657220646F6E6520737563682061DC
S1130450207468696E67206265666F72652C20621D
S11304607574207368652072656D656D626572656B
S11304706420686176696E67207365656E20696EB5
S1130480206865722062726F746865722773204CED
S11304906174696E204772616D6D61722C20274111
S11304A0206D6F7573652D6F662061206D6F757398
S11304B0652D746F2061206D6F7573652D61206DDE
S11304C06F7573652D4F206D6F7573652127292016
S11304D0546865204D6F757365206C6F6F6B656430
S11304E02061742068657220726174686572206985
S11304F06E7175697369746976656C792C20616EA7
S113050064207365656D656420746F20686572206E
S1130510746F2077696E6B2077697468206F6E65DD
S1130520206F6620697473206C6974746C6520652F
S11305307965732C20627574206974207361696411
S1130540206E6F7468696E672E202750657268612B
S1130550707320697420646F65736E277420756EE0
S11305606465727374616E6420456E676C69736848
S11305702C272074686F7567687420416C69636503
S11305803B2027492064617265736179206974276F
S1130590732061204672656E6368206D6F757365A4
S11305A02C20636F6D65206F76657220776974689F
S11305B02057696C6C69616D2074686520436F6EA7
S11305C0717565726F722E272028466F722C207702
S11305D069746820616C6C20686572206B6E6F773B
S11305E06C65646765206F6620686973746F7279DF
S11305F02C20416C69636520686164206E6F2076ED
S113060065727920636C656172206E6F74696F6EB8
S113061020686F77206C6F6E672061676F20616E52
S1130620797468696E6720686164206861707065B8
S11306306E65642E2920536F207368652062656798
S1130640616E20616761696E3A20274F752065737A
S113065074206D61206368617474653F2720776836
S113066069636820776173207468652066697273B2
S1130670742073656E74656E636520696E206865A9
S113068072204672656E6368206C6573736F6E2D9D
S1130690626F6F6B2E20546865204D6F75736520F3
S11306A06761766520612073756464656E206C658E
S11306B06170206F7574206F66207468652077619F
S11306C07465722C20616E64207365656D656420A9
S11306D0746F2071756976657220616C6C206F7619
S11306E065722077697468206672696768742E2061
S11306F0274F682C20492062656720796F75722026
S1130700706172646F6E2127206372696564204191
S11307106C6963652068617374696C792C20616607
S1130720726169642074686174207368652068610B
S11307306420687572742074686520706F6F72200D
S1130740616E696D616C2773206665656C696E679F
S1130750732E20274920717569746520666F72674E
S11307606F7420796F75206469646E2774206C69D6
S11307706B6520636174732E2720274E6F74206C81
S1130780696B6520636174732127206372696564F2
S113079020746865204D6F7573652C20696E206127
S11307A020736872696C6C2C2070617373696F6E4E
S11307B061746520766F6963652E2027576F756CA9
S11307C06420796F75206C696B6520636174732094
S11307D0696620796F752077657265206D653F279E
S11307E0202757656C6C2C207065726861707320CB
S11307F06E6F742C27207361696420416C69636592
S113080020696E206120736F6F7468696E6720744D
S11308106F6E653A2027646F6E27742062652061CD
S11308206E6772792061626F75742069742E20413D
S11308306E642079657420492077697368204920A3
S1130840636F756C642073686F7720796F75206FA0
S11308507572206361742044696E61683A2049208E
S11308607468696E6B20796F7527642074616B6599
S113087020612066616E637920746F2063617473F4
S113088020696620796F7520636F756C64206F6EC4
S11308906C7920736565206865722E205368652025
S11308A069732073756368206120646561722071C7
S11308B075696574207468696E672C2720416C69BA
S11308C063652077656E74206F6E2C2068616C669A
S11308D020746F2068657273656C662C20617320C8
S11308E0736865207377616D206C617A696C792017
S11308F061626F757420696E2074686520706F6F13
S11309006C2C2027616E642073686520736974738E
S11309102070757272696E6720736F206E696365EB
S11309206C792062792074686520666972652C2070
S11309306C69636B696E6720686572207061777398
S113094020616E642077617368696E6720686572E0
S113095020666163652D616E642073686520697328
S113096020737563682061206E69636520736F6608
S113097074207468696E6720746F206E7572736575
S11309802D616E6420736865277320737563682016
S113099061206361706974616C206F6E6520666F9D
S11309A072206361746368696E67206D6963652D85
S11309B06F682C20492062656720796F75722070FA
S11309C06172646F6E212720637269656420416CD3
S11309D069636520616761696E2C20666F7220749B
S11309E06869732074696D6520746865204D6F753E
S11309F07365207761732062726973746C696E67C2
S1130A0020616C6C206F7665722C20616E6420739B
S1130A1068652066656C74206365727461696E2014
S1130A206974206D757374206265207265616C6CE5
S1130A3079206F6666656E6465642E20275765208D
S1130A40776F6E27742074616C6B2061626F7574AC
S1130A502068657220616E79206D6F726520696609
S1130A6020796F75276420726174686572206E6FD7
S1130A70742E272027576520696E646565642127D5
S1130A8020637269656420746865204D6F757365B1
S1130A902C2077686F20776173207472656D626CA7
S1130AA0696E6720646F776E20746F2074686520A8
S1130AB0656E64206F6620686973207461696C2EAA
S1130AC020274173206966204920776F756C642064
S1130AD074616C6B206F6E20737563682061207382
S1130AE075626A65637421204F75722066616D6951
S1130AF06C7920616C776179732068617465642016
S1130B00636174733A206E617374792C206C6F770F
S1130B102C2076756C676172207468696E67732126
S1130B2020446F6E2774206C6574206D65206865A1
S1130B30617220746865206E616D6520616761690A
S1130B406E212720274920776F6E277420696E64F1
S1130B506565642127207361696420416C6963655C
S1130B602C20696E2061206772656174206875723B
S1130B70727920746F206368616E6765207468659C
S1130B80207375626A656374206F6620636F6E7686
S1130B906572736174696F6E2E20274172652079C6
S1130BA06F752D61726520796F7520666F6E642D87
S1130BB06F662D6F6620646F67733F2720546865E6
S1130BC0204D6F75736520646964206E6F742061B5
S1130BD06E737765722C20736F20416C6963652096
S1130BE077656E74206F6E2065616765726C793A03
S1130BF020275468657265206973207375636820C3
S1130C0061206E696365206C6974746C6520646F1F
S1130C1067206E656172206F757220686F757365E9
S1130C2020492073686F756C64206C696B6520744F
S1130C306F2073686F7720796F75212041206C696C
S1130C4074746C65206272696768742D6579656473
S1130C5020746572726965722C20796F75206B6ED1
S1130C606F772C2077697468206F682C2073756304
S1130C7068206C6F6E67206375726C792062726F86
S1130C80776E20686169722120416E64206974273F
S1130C906C6C206665746368207468696E67732081
S1130CA07768656E20796F75207468726F77207429
S1130CB068656D2C20616E64206974276C6C2073E8
S1130CC0697420757020616E642062656720666FA8
S1130CD072206974732064696E6E65722C20616E73
S1130CE06420616C6C20736F727473206F6620745F
S1130CF068696E67732D492063616E27742072657D
S1130D006D656D6265722068616C66206F66207423
S1130D1068656D2D616E642069742062656C6F6E08
S1130D20677320746F2061206661726D65722C2078
S1130D30796F75206B6E6F772C20616E6420686507
S1130D402073617973206974277320736F2075731E
S1130D506566756C2C206974277320776F727468CC
S1130D6020612068756E6472656420706F756E64AE
S1130D7073212048652073617973206974206B693D
S1130D806C6C7320616C6C20746865207261747380
S1130D9020616E642D6F6820646561722127206371
S1130DA07269656420416C69636520696E20612005
S1130DB0736F72726F7766756C20746F6E652C201A
S1130DC02749276D20616672616964204927766529
S1130DD0206F6666656E646564206974206167616E
S1130DE0696E212720466F7220746865204D6F75E7
S1130DF0736520776173207377696D6D696E672001
S1130E00617761792066726F6D2068657220617305
S1130E10206861726420617320697420636F756C4B
S1130E206420676F2C20616E64206D616B696E674E
S1130E30207175697465206120636F6D6D6F7469CD
S1130E406F6E20696E2074686520706F6F6C20610E
S1130E50732069742077656E742E20536F20736835
S1130E60652063616C6C656420736F66746C7920B3
S1130E7061667465722069742C20274D6F757365E3
S1130E8020646561722120446F20636F6D65206268
S1130E9061636B20616761696E2C20616E642077E9
S1130EA06520776F6E27742074616C6B2061626FAC
S1130EB075742063617473206F7220646F6773208C
S1130EC06569746865722C20696620796F75206481
S1130ED06F6E2774206C696B65207468656D2127BB
S1130EE0205768656E20746865204D6F75736520A2
S1130EF0686561726420746869732C206974207455
S1130F0075726E656420726F756E6420616E642004
S1130F107377616D20736C6F776C79206261636B9A
S1130F2020746F206865723A206974732066616367
S1130F3065207761732071756974652070616C65D3
S1130F402028776974682070617373696F6E2C2030
S1130F50416C6963652074686F75676874292C2017
S1130F60616E64206974207361696420696E206114
S1130F70206C6F77207472656D626C696E67207681
S1130F806F6963652C20274C657420757320676531
S1130F907420746F207468652073686F72652C20E8
S1130FA0616E64207468656E2049276C6C207465DA
S1130FB06C6C20796F75206D7920686973746F7219
S1130FC0792C20616E6420796F75276C6C20756EA6
S1130FD06465727374616E64207768792069742023
S1130FE069732049206861746520636174732061AA
S1130FF06E6420646F67732E272064616461734993
S1131000742077617320686967682074696D65204E
S1131010746F20676F2C20666F722074686520706F
S11310206F6F6C207761732067657474696E6720D5
S113103071756974652063726F776465642077697C
S113104074682074686520626972647320616E64D8
S113105020616E696D616C732074686174206861CD
S1131060642066616C6C656E20696E746F206974AF
S11310703A20746865726520776572652061204442
S113108075636B20616E64206120446F646F2C2053
S113109061204C6F727920616E6420616E2045611D
S11310A0676C65742C20616E64207365766572616B
S11310B06C206F7468657220637572696F75732034
S11310C06372656174757265732E20416C69636522
S11310D0206C656420746865207761792C20616ECA
S11310E064207468652077686F6C65207061727421
S11310F079207377616D20746F207468652073683C
S11311006F72652E202020202020202020202020E7
S1131110000000000000000000004F000000000775
S113112000070000147F147F1400242A7F2A120071
S11311302313086462003649552250000005030059
S11311400000001C224100000041221C0000140881
S11311503E08140008083E08080000503000000053
S11311600808080808000060600000002010080457
S113117002003E5149453E0000427F40000042616A
S1131180514946002141454B31001814127F10008B
S11311902745454539003C4A494930000171090554
S11311A00300364949493600064949291E003636A6
S11311B00000000056360000000008142241000020
S11311C014141414140000412214080002015109DB
S11311D00600304979413E007E1111117E007F499D
S11311E0494936003E41414122007F4141221C00D1
S11311F07F49494941007F09090901003E414949A4
S11312007A007F0808087F0000417F4100002040E9
S1131210413F01007F08142241007F4040404000CC
S11312207F020C027F007F0408107F003E41414191
S11312303E007F09090906003E4151215E007F09F5
S11312401929460046494949310001017F0101003D
S11312503F4040403F001F2040201F003F4030409F
S11312603F00631408146300070870080700615105
S113127049454300007F414100000204081020005A
S11312800041417F0000040201020400404040404C
S113129040000001020400002054545478007F50A0
S11312A048483000384444442000384444487F00CF
S11312B0385454541800087E090102000C5252524A
S11312C03E007F080404780000447D400000204074
S11312D0443D00007F102844000000417F4000008E
S11312E07804584478007C08040478003844444462
S11312F038007C1414140800081414187C007C08AA
S113130004040800485454542000043F444020007E
S11313103C4040207C001C2040201C003C403040CD
S11313203C004428102844000C5050503C004464B5
S1131330544C440000083641000000007F000000C7
S11313400041360800000C020C100C0000000000E4
S1131350000011241FBECFE5D8E0DEBFCDBF20E0E2
S1131360A0E6B0E001C01D92A03AB207E1F70E94E6
S11313701C0B0C942B0B0C940000AC01440F452F58
S1131380441F550B519548275927417055279A01F9
S11313903695322F222737952795422B532B8427B6
S11313A09527BC01769567959C010024220F331F75
S11313B0001C220F331F001C232F302D622773279C
S11313C0617077279B01220F331F00247695679560
S11313D00794769567950794762F602D262B372BE7
S11313E0A90148275927BA01769567957695679597
S11313F0CA0196958795929582958F7089279F70DB
S1131400892768277927617077279B01220F331F6B
S1131410220F331F660F771F62957295707F7627B0
S1131420607F7627262B372B24273527A90156954D
S113143047955695479556954795C9019295829536
S11314408F7089279F70892748275927417055270E
S1131450CA01880F991F880F991F880F991F4295F9
S11314605295507F5427407F5427842B952B8227F5
S113147093270895B89AC09ABD9ABF9A6C9A6E9AA7
S113148008958FB9779BFECF0895CF93C62F0E94FE
S1131490410A8C2F0E94410ACF910895CF93C0989E
S11314A0C8E08AE00E94410A87E00E94410AC150D4
S11314B0C1F7C09AC098C8E08BE00E94410A87E057
S11314C00E94410AC150C1F7C09AC098C8E08CE09C
S11314D00E94410A81E00E94410AC150C1F7C09AAA
S11314E0C098C8E08FE00E94410A80E00E94410A4F
S11314F0C150C1F7C09ACF910895CF93DF93D1E043
S1131500C098C8E08D2F0E94410A80E00E94410AE1
S1131510C150C1F7C09ADF5FD93091F7DF91CF9105
S11315200895E0E6F0E080EA90E01192E817F90708
S1131530E1F70895E0E6F0E02FE930E0918191933E
S1131540E217F307D9F780939F000895AF92BF92F3
S1131550CF92DF92EF92FF921F93CF93DF930F2EE0
S1131560F0E6AF2EF0E0BF2EF02DD0E02AC0C098F8
S1131570DD2359F1C0E060E080E00E94450ACF5FBE
S1131580CD13F9CFF7016081812F0E94450AD7302E
S113159040F4C7E060E080E00E94450AC150DC17D7
S11315A0C8F3C09A1F5FFFEFEF1AFF0A8FEFC81A44
S11315B0D80A1930E1F6DF5FE8E0AE0EB11CD8308E
S11315C051F06501750111E0D2CFF6016081812FE0
S11315D00E94450ADECFDF91CF911F91FF90EF90DB
S11315E0DF90CF90BF90AF900895C5E090E08C015C
S11315F0000F111F800F911F8C01000F111FF801A4
S1131600EC0FF11DEF5EFE4E849190E00E94BD0947
S11316100E949A0A0E94A60A8FE59DE60197F1F7B7
S113162000C00000C150EBCF672B29F0FC0184916E
S113163080520E94F50A08950E943A0A0E944E0AB6
S11316400E947D0A0E94910A6DEB70E184E590E0AE
S10D16500E94140BF9CFF894FFCFA9
S9030000FC
